:020000040800F2
:100000000050002055120008F9110008FF110008E7
:10001000051200080B120008111200080000000071
:10002000000000000000000000000000171200089F
:1000300023120008000000002F1200083B120008E5
:100040009D1200089D1200089D1200089D120008D4
:100050009D1200089D1200089D1200089D120008C4
:100060009D1200089D1200089D1200089D120008B4
:100070009D1200089D1200089D1200089D120008A4
:100080009D1200089D1200089D1200089D12000894
:100090009D1200089D1200089D1200089D12000884
:1000A0009D1200089D1200089D1200089D12000874
:1000B0009D1200089D1200089D1200089D12000864
:1000C0009D1200089D1200089D1200089D12000854
:1000D0009D1200089D1200089D1200089D12000844
:1000E0009D1200089D1200089D12000800000000EB
:1000F0000000000000000000000000000000000000
:0C01000000000000000000005FF808F1A3
:1001100010B5054C237833B9044B13B10448AFF341
:1001200000800123237010BD0C000020000000009F
:10013000C831000808B5034B1BB103490348AFF3AE
:10014000008008BD0000000010000020C831000839
:1001500081F0004102E000BF83F0004330B54FEA78
:1001600041044FEA430594EA050F08BF90EA020FE5
:100170001FBF54EA000C55EA020C7FEA645C7FEA78
:10018000655C00F0E2804FEA5454D4EB5555B8BF9B
:100190006D420CDD2C4480EA020281EA030382EA0C
:1001A000000083EA010180EA020281EA0303362D9E
:1001B00088BF30BD11F0004F4FEA01314FF4801C71
:1001C0004CEA113102D0404261EB410113F0004F83
:1001D0004FEA03334CEA133302D0524263EB43033A
:1001E00094EA050F00F0A780A4F10104D5F1200ED8
:1001F0000DDB02FA0EFC22FA05F2801841F1000133
:1002000003FA0EF2801843FA05F359410EE0A5F106
:1002100020050EF1200E012A03FA0EFC28BF4CF037
:10022000020C43FA05F3C01851EBE37101F00045ED
:1002300007D54FF0000EDCF1000C7EEB00006EEBFA
:100240000101B1F5801F1BD3B1F5001F0CD3490884
:100250005FEA30004FEA3C0C04F101044FEA4452DB
:1002600012F5800F80F09A80BCF1004F08BF5FEA62
:10027000500C50F1000041EB045141EA050130BD42
:100280005FEA4C0C404141EB0101013C28BFB1F554
:10029000801FE9D291F0000F04BF01460020B1FA9F
:1002A00081F308BF2033A3F10B03B3F120020CDA72
:1002B0000C3208DD02F1140CC2F10C0201FA0CF050
:1002C00021FA02F10CE002F11402D8BFC2F1200CB5
:1002D00001FA02F120FA0CFCDCBF41EA0C0190406B
:1002E000E41AA2BF01EB0451294330BD6FEA0404B4
:1002F0001F3C1CDA0C340EDC04F11404C4F120029F
:1003000020FA04F001FA02F340EA030021FA04F3B0
:1003100045EA030130BDC4F10C04C4F1200220FA07
:1003200002F001FA04F340EA0300294630BD21FA45
:1003300004F0294630BD94F0000F83F4801306BF0B
:1003400081F480110134013D4EE77FEA645C18BFFF
:100350007FEA655C29D094EA050F08BF90EA020F96
:1003600005D054EA000C04BF1946104630BD91EA8E
:10037000030F1EBF0021002030BD5FEA545C05D191
:100380004000494128BF41F0004130BD14F58004D0
:100390003CBF01F5801130BD01F0004545F0FE4144
:1003A00041F470014FF0000030BD7FEA645C1ABF79
:1003B000194610467FEA655C1CBF0B46024650EAB0
:1003C000013406BF52EA033591EA030F41F40021DC
:1003D00030BD00BF90F0000F04BF0021704730B562
:1003E0004FF4806404F132044FF000054FF0000137
:1003F00050E700BF90F0000F04BF0021704730B5F8
:100400004FF4806404F1320410F0004548BF4042CC
:100410004FF000013EE700BF42004FEAE2014FEA21
:1004200031014FEA02701FBF12F07F4393F07F4FFC
:1004300081F06051704732F07F4208BF704793F0FF
:100440007F4F04BF41F40021704730B54FF4607412
:1004500001F0004521F000411CE700BF50EA010215
:1004600008BF704730B54FF000050AE050EA0102BE
:1004700008BF704730B511F0004502D5404261EB2E
:1004800041014FF4806404F132045FEA915C3FF46F
:10049000D8AE4FF003025FEADC0C18BF03325FEA0C
:1004A000DC0C18BF033202EBDC02C2F1200300FABD
:1004B00003FC20FA02F001FA03FE40EA0E0021FAE2
:1004C00002F11444BDE600BF70B54FF0FF0C4CF4D0
:1004D000E06C1CEA11541DBF1CEA135594EA0C0F82
:1004E00095EA0C0F00F0DEF82C4481EA030621EABD
:1004F0004C5123EA4C5350EA013518BF52EA0335F8
:1005000041F4801143F4801338D0A0FB02CE4FF0A9
:100510000005E1FB02E506F00042E0FB03E54FF0D9
:100520000006E1FB03569CF0000F18BF4EF0010ED1
:10053000A4F1FF04B6F5007F64F5407404D25FEACD
:100540004E0E6D4146EB060642EAC62141EA555180
:100550004FEAC52040EA5E504FEACE2EB4F1FD0CC2
:1005600088BFBCF5E06F1ED8BEF1004F08BF5FEA40
:10057000500E50F1000041EB045170BD06F00046F2
:1005800046EA010140EA020081EA0301B4EB5C049F
:10059000C2BFD4EB0C0541EA045170BD41F4801197
:1005A0004FF0000E013C00F3AB8014F1360FDEBFBC
:1005B000002001F0004170BDC4F10004203C35DA98
:1005C0000C341BDC04F11404C4F1200500FA05F31B
:1005D00020FA04F001FA05F240EA020001F00042BC
:1005E00021F0004110EBD37021FA04F642EB060132
:1005F0005EEA430E08BF20EAD37070BDC4F10C045C
:10060000C4F1200500FA04F320FA05F001FA04F21F
:1006100040EA020001F0004110EBD37041F100010B
:100620005EEA430E08BF20EAD37070BDC4F1200516
:1006300000FA05F24EEA020E20FA04F301FA05F27E
:1006400043EA020321FA04F001F0004121FA04F226
:1006500020EA020000EBD3705EEA430E08BF20EAF6
:10066000D37070BD94F0000F0FD101F00046400030
:1006700041EB010111F4801F08BF013CF7D041EAB2
:10068000060195F0000F18BF704703F000465200B6
:1006900043EB030313F4801F08BF013DF7D043EA87
:1006A0000603704794EA0C0F0CEA135518BF95EA3D
:1006B0000C0F0CD050EA410618BF52EA4306D1D1C4
:1006C00081EA030101F000414FF0000070BD50EAE3
:1006D000410606BF1046194652EA430619D094EA6D
:1006E0000C0F02D150EA013613D195EA0C0F05D157
:1006F00052EA03361CBF104619460AD181EA0301AB
:1007000001F0004141F0FE4141F470014FF0000062
:1007100070BD41F0FE4141F4780170BD70B54FF0FD
:10072000FF0C4CF4E06C1CEA11541DBF1CEA13557D
:1007300094EA0C0F95EA0C0F00F0A7F8A4EB05045F
:1007400081EA030E52EA03354FEA013100F0888056
:100750004FEA03334FF0805545EA131343EA12631F
:100760004FEA022245EA111545EA10654FEA0026D4
:100770000EF000419D4208BF964244F1FD0404F58D
:10078000407402D25B084FEA3202B61A65EB0305E9
:100790005B084FEA32024FF480104FF4002CB6EBA6
:1007A000020E75EB030E22BFB61A754640EA0C0026
:1007B0005B084FEA3202B6EB020E75EB030E22BF66
:1007C000B61A754640EA5C005B084FEA3202B6EBA7
:1007D000020E75EB030E22BFB61A754640EA9C0066
:1007E0005B084FEA3202B6EB020E75EB030E22BF36
:1007F000B61A754640EADC0055EA060E18D04FEAF4
:10080000051545EA16754FEA06164FEAC30343EA93
:1008100052734FEAC2025FEA1C1CC0D111F4801F60
:100820000BD141EA00014FF000004FF0004CB6E759
:1008300011F4801F04BF01430020B4F1FD0C88BFF8
:10084000BCF5E06F3FF6AFAEB5EB030C04BFB6EB03
:10085000020C5FEA500C50F1000041EB045170BDF6
:100860000EF0004E4EEA113114EB5C04C2BFD4EB23
:100870000C0541EA045170BD41F480114FF0000EA7
:10088000013C90E645EA060E8DE60CEA135594EA23
:100890000C0F08BF95EA0C0F3FF43BAF94EA0C0F26
:1008A0000AD150EA01347FF434AF95EA0C0F7FF49B
:1008B00025AF104619462CE795EA0C0F06D152EAEF
:1008C00003353FF4FDAE1046194622E750EA4106D3
:1008D00018BF52EA43067FF4C5AE50EA41047FF4E4
:1008E0000DAF52EA43057FF4EBAE12E74A0011D296
:1008F00012F5001211D20DD56FF47873B3EB62527A
:100900000ED44FEAC12343F0004343EA505323FA85
:1009100002F070474FF00000704750EA013002D1FA
:100920004FF0FF3070474FF00000704700000000AC
:1009300080B582B000AF00F0B3FC00F02FF900F0FA
:10094000D1FA00F087F900F0C3F900F05DFA8E48A3
:1009500000F004FE00218D4801F0ECFF04218B48DB
:1009600001F0E8FF0821894801F0E4FF00218848F0
:1009700001F0E0FF0421864801F0DCFF08218448F3
:1009800001F0D8FF804800F0E9FD4FF400518148A4
:1009900001F0C9FA4FF4FA7000F0E4FC7A4800F074
:1009A0008BFE03461846FFF715FD75A3D3E9002318
:1009B000FFF7B4FE02460B4610461946FFF796FFB6
:1009C0000346FB714FF40051734801F07DFA034672
:1009D000BB714FF48041704801F076FA03467B7199
:1009E0004FF400416C4801F06FFA03463B71BB794C
:1009F0001A46920013441A4691001A460B461344B5
:100A00009B00DAB27B79194689000B445B00DBB2AC
:100A10001344DAB23B791344FB70FB78642B1AD190
:100A20005A4B1B6800225A63584B1B680022DA633A
:100A3000564B1B68FA799A63554B1B684FF47072DA
:100A40009A63534B1B684FF47072DA63504B1B6808
:100A500000225A6396E7FB78652B1AD14B4B1B6833
:100A600000225A63494B1B680022DA63474B1B681C
:100A7000FA799A63464B1B684FF470725A63444B81
:100A80001B684FF470729A63414B1B680022DA6353
:100A900078E7FB78012B1AD13C4B1B6800229A6344
:100AA0003A4B1B680022DA63384B1B68FA795A63A9
:100AB000374B1B684FF470725A63354B1B684FF409
:100AC00070729A63324B1B680022DA635AE7FB7834
:100AD0000B2B1AD12D4B1B6800229A632B4B1B68E2
:100AE0000022DA63294B1B68FA795A63284B1B688A
:100AF0004FF470725A63264B1B684FF47072DA63BE
:100B0000234B1B6800229A633CE7FB780A2B1AD11F
:100B10001E4B1B6800225A631C4B1B6800229A6301
:100B20001A4B1B68FA79DA63194B1B684FF4707221
:100B30005A63174B1B684FF47072DA63144B1B68CF
:100B400000229A631EE7114B1B6800225A630F4B69
:100B50001B6800229A630D4B1B68FA79DA630C4B11
:100B60001B684FF470729A63094B1B684FF47072E4
:100B7000DA63074B1B6800225A6303E7AFF3008078
:100B8000D7A3703D0AD7104028000020580000204D
:100B9000A000002000100140000C014080B594B07E
:100BA00000AF07F1280328220021184602F004FBB9
:100BB00007F1140300221A605A609A60DA601A6121
:100BC0003B1D00221A605A609A60DA600123BB6202
:100BD0004FF48033FB6200233B630123BB6302239A
:100BE0007B644FF48033BB644FF4E013FB6407F184
:100BF0002803184601F0B0F90346002B01D000F09D
:100C0000D7F90F237B610223BB610023FB614FF403
:100C100080633B6200237B6207F1140302211846C4
:100C200001F01CFC0346002B01D000F0C1F90223A7
:100C30007B604FF40043FB603B1D184601F074FDE0
:100C40000346002B01D000F0B3F900BF5037BD467A
:100C500080BD000080B584B000AF3B1D00221A604B
:100C60005A609A60184B194A1A60174B00229A6012
:100C7000154B00221A73144B00221A75124B4FF4B5
:100C80006022DA61104B00225A600F4B01221A6178
:100C90000D4800F08BFB0346002B01D000F088F9D3
:100CA00000237B600123BB600023FB603B1D1946D2
:100CB000054800F00DFD0346002B01D000F078F947
:100CC00000BF1037BD4680BD280000200024014031
:100CD00080B592B000AF07F1400300221A605A605D
:100CE00007F1240300221A605A609A60DA601A61E0
:100CF0005A619A613B1D20220021184602F05CFADD
:100D00003F4B404A1A603E4B05225A603C4B002242
:100D10009A603B4B4FF47072DA60394B00221A61D3
:100D2000374B00225A61364B00229A61344801F059
:100D3000B1FD0346002B01D000F03AF900233B64DB
:100D400000237B6407F1400319462D4802F060F947
:100D50000346002B01D000F02BF960237B620023B7
:100D6000BB620023FB6200233B6300237B63002301
:100D7000BB630023FB6307F12403002219462048CC
:100D800001F07AFE0346002B01D000F011F907F1C3
:100D90002403042219461A4801F06EFE0346002B74
:100DA00001D000F005F907F1240308221946144880
:100DB00001F062FE0346002B01D000F0F9F8002399
:100DC0007B600023BB600023FB6000233B610023AA
:100DD0007B614FF40053BB6100233B623B1D19460E
:100DE000074802F073F90346002B01D000F0E0F849
:100DF000034800F081F900BF4837BD4680BD00BF01
:100E000058000020002C014080B58AB000AF07F1E7
:100E1000200300221A605A603B1D00221A605A60AB
:100E20009A60DA601A615A619A612D4B4FF08042E4
:100E30001A602B4B05225A60294B00229A60284BDE
:100E40004FF47072DA60264B00221A61244B0022A4
:100E50009A61234801F01EFD0346002B01D000F0EB
:100E6000A7F800233B6200237B6207F120031946A9
:100E70001B4802F0CDF80346002B01D000F098F893
:100E800060237B600023BB600023FB6000237B6149
:100E90003B1D00221946124801F0EEFD0346002BCF
:100EA00001D000F085F83B1D042219460C4801F0E2
:100EB000E3FD0346002B01D000F07AF83B1D082229
:100EC0001946074801F0D8FD0346002B01D000F079
:100ED0006FF8034800F010F900BF2837BD4680BD09
:100EE000A000002080B588B000AF07F110030022F9
:100EF0001A605A609A60DA602A4B9B69294A43F06B
:100F000010039361274B9B6903F01003FB60FB68A0
:100F1000244B9B69234A43F020039361214B9B6937
:100F200003F02003BB60BB681E4B9B691D4A43F066
:100F3000040393611B4B9B6903F004037B607B6894
:100F4000184B9B69174A43F008039361154B9B6943
:100F500003F008033B603B6800224FF40051124845
:100F600000F0C9FF4FF400533B6101237B61002374
:100F7000BB610223FB6107F1100319460A4800F028
:100F80001FFE4FF460433B6100237B610023BB6184
:100F900007F110031946054800F012FE00BF203784
:100FA000BD4680BD0010024000100140000C014011
:100FB00080B400AF72B600BFFEE7000080B485B019
:100FC00000AF154B9B69144A43F001039361124B28
:100FD0009B6903F00103BB60BB680F4BDB690E4AE2
:100FE00043F08053D3610C4BDB6903F080537B608B
:100FF0007B680A4B5B68FB60FB6823F0E063FB6087
:10100000FB6843F00073FB60044AFB68536000BF59
:101010001437BD4680BC70470010024000000140FC
:1010200080B588B000AF786007F1100300221A6025
:101030005A609A60DA607B681B68144A934221D137
:10104000134B9B69124A43F400739361104B9B69E5
:1010500003F40073FB60FB680D4B9B690C4A43F083
:10106000040393610A4B9B6903F00403BB60BB68F4
:1010700001233B6103237B6107F1100319460548F7
:1010800000F09EFD00BF2037BD4680BD002401401A
:10109000001002400008014080B485B000AF7860C5
:1010A0007B681B68124A93420CD1124B9B69114A10
:1010B00043F4006393610F4B9B6903F40063FB608F
:1010C000FB6810E07B681B68B3F1804F0BD1094BC4
:1010D000DB69084A43F00103D361064BDB6903F087
:1010E0000103BB60BB6800BF1437BD4680BC7047BE
:1010F000002C01400010024080B58AB000AF78603B
:1011000007F1140300221A605A609A60DA607B6863
:101110001B68344A934219D1334B9B69324A43F0DE
:1011200004039361304B9B6903F004033B613B690B
:101130004FF4E0637B610223BB6102233B6207F152
:1011400014031946294800F03BFD47E07B681B6803
:10115000B3F1804F42D1244B9B69234A43F00403EF
:101160009361214B9B6903F00403FB60FB681E4BFA
:101170009B691D4A43F0080393611B4B9B6903F075
:101180000803BB60BB6848F204037B610223BB61B8
:1011900002233B6207F114031946144800F010FDC6
:1011A00008237B610223BB6102233B6207F1140326
:1011B00019460F4800F004FD0E4B5B687B627B6AAA
:1011C00023F440737B627B6A43F0E0637B627B6A5B
:1011D00043F480737B62074A7B6A536000BF283701
:1011E000BD4680BD002C01400010024000080140B7
:1011F000000C01400000014080B400AFFEE780B465
:1012000000AFFEE780B400AFFEE780B400AFFEE7BA
:1012100080B400AFFEE780B400AF00BFBD4680BC25
:10122000704780B400AF00BFBD4680BC704780B43B
:1012300000AF00BFBD4680BC704780B500AF00F076
:1012400075F800BF80BD80B400AF00BFBD4680BC54
:10125000704700000C480D490D4A002302E0D458A5
:10126000C4500433C4188C42F9D30A4A0A4C0023F0
:1012700001E013600432A242FBD3FFF7E4FF01F068
:1012800077FFFFF755FB7047000000200C0000209F
:10129000083200080C000020EC000020FEE70000EF
:1012A00080B500AF084B1B68074A43F0100313607A
:1012B000032000F051FC0F2000F008F8FFF77EFE3D
:1012C0000023184680BD00BF0020024080B582B0D8
:1012D00000AF7860124B1A68124B1B7819464FF416
:1012E0007A73B3FBF1F3B2FBF3F3184600F05BFC47
:1012F0000346002B01D001230EE07B680F2B0AD898
:10130000002279684FF0FF3000F031FC064A7B681C
:101310001360002300E0012318460837BD4680BD56
:1013200000000020080000200400002080B400AF6E
:10133000054B1B781A46054B1B681344034A136080
:1013400000BFBD4680BC704708000020E8000020B8
:1013500080B400AF024B1B681846BD4680BC704786
:10136000E800002080B584B000AF7860FFF7F0FFA0
:10137000B8607B68FB60FB68B3F1FF3F05D00A4BA8
:101380001B781A46FB681344FB6000BFFFF7E0FFC1
:101390000246BB68D31AFA689A42F7D800BF00BF6A
:1013A0001037BD4680BD00BF0800002080B586B064
:1013B00000AF78600023FB7500233B610023BB6016
:1013C0000023FB607B68002B01D10123BEE07B681A
:1013D0009B68002B7B689B6A002B09D17B680022ED
:1013E000DA627B68002283F824207868FFF718FE11
:1013F000786800F0BFFA0346FB757B689B6A03F0D0
:101400001003002B40F09980FB7D002B40F095806D
:101410007B689B6A23F4885323F0020343F00202A3
:101420007B689A627B685A687B68DB691A437B68D1
:101430001B7B5B001343BA681343BB607B689B68EC
:10144000B3F5807F03D07B689B68012B02D14FF4FA
:10145000807300E000233A6913433B617B681B7D86
:10146000012B19D17B681B7B002B09D17B689B6901
:10147000013B5A033B69134343F400633B610BE0B8
:101480007B689B6A43F020027B689A627B68DB6A18
:1014900043F001027B68DA627B681B685B6823F4B7
:1014A00069417B681B683A690A435A607B681B681C
:1014B0009A68284B13407A681268B9680B439360A6
:1014C0007B689B68B3F5807F03D07B689B68012BAA
:1014D00004D17B681B69013B1B05FB607B681B68B3
:1014E000DB6A23F470017B681B68FA680A43DA62DE
:1014F0007B681B689A68184B1340BA689A420BD1F4
:101500007B680022DA627B689B6A23F0030343F066
:1015100001027B689A6218E07B689B6A23F01203E1
:1015200043F010027B689A627B68DB6A43F0010239
:101530007B68DA620123FB7507E07B689B6A43F0F6
:1015400010027B689A620123FB75FB7D18461837F1
:10155000BD4680BDFDF7E1FFFE0E1FFF80B584B0E4
:1015600000AF78600023FB737B6893F82430012B75
:1015700001D1022398E07B68012283F82420786857
:1015800000F09EF90346FB73FB7B002B40F0878045
:101590007B689B6A23F4407323F0010343F4807259
:1015A0007B689A627B681B68414A934205D1414B34
:1015B0005B6803F47023002B15D17B689B6A23F4CE
:1015C00080127B689A627B681B685B6803F48063A7
:1015D000002B26D07B689B6A23F4405343F480524F
:1015E0007B689A621DE07B689B6A43F480127B688B
:1015F0009A627B681B682F4A934204D07B681B6801
:101600002B4A93420DD12B4B5B6803F48063002B74
:1016100007D07B689B6A23F4405343F480527B6875
:101620009A627B689B6A03F48053002B06D07B6828
:10163000DB6A23F006027B68DA6202E07B68002244
:10164000DA627B68002283F824207B681B686FF0D5
:1016500002021A607B681B689B6803F46023B3F581
:10166000602F13D17B681B68114A934205D1114B3F
:101670005B6803F47023002B08D17B681B689A68B1
:101680007B681B6842F4A0029A600CE07B681B68D0
:101690009A687B681B6842F480129A6003E07B685A
:1016A000002283F82420FB7B18461037BD4680BDFE
:1016B000002801400024014080B483B000AF78606E
:1016C0007B681B68DB6C18460C37BD4680BC7047D6
:1016D00080B485B000AF786039600023FB730023CD
:1016E000BB607B6893F82430012B01D10223DCE03E
:1016F0007B68012283F824203B685B68062B1CD89A
:101700007B681B68596B3B685A6813469B001344FF
:10171000053B1F2202FA03F3DB4319403B681868BC
:101720003B685A6813469B001344053B00FA03F2DA
:101730007B681B680A435A633CE03B685B680C2B80
:101740001CD87B681B68196B3B685A6813469B0062
:101750001344233B1F2202FA03F3DB4319403B6887
:1017600018683B685A6813469B001344233B00FAF1
:1017700003F27B681B680A431A631BE07B681B68E3
:10178000D96A3B685A6813469B001344413B1F22A9
:1017900002FA03F3DB4319403B6818683B685A6858
:1017A00013469B001344413B00FA03F27B681B681D
:1017B0000A43DA623B681B68092B1CD97B681B68EB
:1017C000D9683B681A6813465B0013441E3B072226
:1017D00002FA03F3DB4319403B6898683B681A68D8
:1017E00013465B0013441E3B00FA03F27B681B6840
:1017F0000A43DA6019E07B681B6819693B681A685C
:1018000013465B001344072202FA03F3DB4319403B
:101810003B6898683B681A6813465B00134400FAFB
:1018200003F27B681B680A431A613B681B68102B34
:1018300003D03B681B68112B32D17B681B681D4AA3
:10184000934225D17B681B689B6803F40003002B3F
:1018500026D17B681B689A687B681B6842F400028B
:101860009A603B681B68102B1AD1134B1B68134AF4
:10187000A2FB03239A0C13469B0013445B00BB603E
:1018800002E0BB68013BBB60BB68002BF9D107E0FD
:101890007B689B6A43F020027B689A620123FB739A
:1018A0007B68002283F82420FB7B18461437BD4652
:1018B00080BC7047002401400000002083DE1B43F1
:1018C00080B584B000AF78600023FB600023BB606C
:1018D0007B681B689B6803F00103012B40D07B6889
:1018E0001B689A687B681B6842F001029A601F4B74
:1018F0001B681F4AA2FB03239B0CBB6002E0BB6872
:10190000013BBB60BB68002BF9D1FFF721FDF860FC
:101910001FE0FFF71DFD0246FB68D31A022B18D902
:101920007B681B689B6803F00103012B11D07B6867
:101930009B6A43F010027B689A627B68DB6A43F023
:1019400001027B68DA627B68002283F8242001238D
:1019500007E07B681B689B6803F00103012BD8D16B
:10196000002318461037BD4680BD00BF0000002090
:1019700083DE1B4380B584B000AF78600023FB603A
:101980007B681B689B6803F00103012B2ED17B68E9
:101990001B689A687B681B6822F001029A60FFF757
:1019A000D7FCF8601BE0FFF7D3FC0246FB68D31AB4
:1019B000022B14D97B681B689B6803F00103012B81
:1019C0000DD17B689B6A43F010027B689A627B684A
:1019D000DB6A43F001027B68DA62012307E07B687F
:1019E0001B689B6803F00103012BDCD00023184621
:1019F0001037BD4680BD000080B485B000AF786070
:101A00007B6803F00703FB600C4BDB68BB60BA68C4
:101A10004FF6FF031340BB60FB681A02BB68134319
:101A200043F0BF6343F40033BB60044ABB68D36038
:101A300000BF1437BD4680BC704700BF00ED00E01A
:101A400080B400AF044BDB681B0A03F007031846A1
:101A5000BD4680BC704700BF00ED00E080B483B09D
:101A600000AF03463960FB7197F90730002B0ADBA2
:101A70003B68DAB20C4997F907301201D2B20B4435
:101A800083F800230AE03B68DAB20849FB7903F0E7
:101A90000F03043B1201D2B20B441A7600BF0C377D
:101AA000BD4680BC704700BF00E100E000ED00E0F3
:101AB00080B489B000AFF860B9607A60FB6803F069
:101AC0000703FB61FB69C3F10703042B28BF042351
:101AD000BB61FB690433062B02D9FB69033B00E0C1
:101AE00000237B614FF0FF32BB6902FA03F3DA4354
:101AF000BB681A407B699A404FF0FF317B6901FA5D
:101B000003F3D9437B680B40134318462437BD4683
:101B100080BC704780B582B000AF78607B68013BC5
:101B2000B3F1807F01D301230FE00A4A7B68013BB8
:101B300053600F214FF0FF30FFF790FF054B00225D
:101B40009A60044B07221A60002318460837BD46E6
:101B500080BD00BF10E000E080B582B000AF7860CB
:101B60007868FFF749FF00BF0837BD4680BD80B5E4
:101B700086B000AF0346B9607A60FB7300237B61D7
:101B8000FFF75EFF78617A68B9687869FFF790FFC0
:101B9000024697F90F3011461846FFF75FFF00BF66
:101BA0001837BD4680BD80B582B000AF78607868D8
:101BB000FFF7B0FF034618460837BD4680BD00005A
:101BC00080B48BB000AF7860396000237B62002363
:101BD0003B6269E101227B6A02FA03F3FB613B6825
:101BE0001B68FA691340BB61BA69FB699A4240F00D
:101BF00058813B685B689A4A93425ED0984A934208
:101C000075D8984A934258D0964A93426FD8964ACC
:101C1000934252D0944A934269D8944A93424CD00A
:101C2000924A934263D8924A934246D0904A934252
:101C30005DD8122B2AD8122B59D801A252F823F0C2
:101C4000BB1C0008951C0008A71C0008E91C000824
:101C5000EF1C0008EF1C0008EF1C0008EF1C000838
:101C6000EF1C0008EF1C0008EF1C0008EF1C000828
:101C7000EF1C0008EF1C0008EF1C0008EF1C000818
:101C8000EF1C00089D1C0008B11C0008794A934213
:101C900013D02CE03B68DB683B6229E03B68DB68E3
:101CA00004333B6224E03B68DB6808333B621FE09F
:101CB0003B68DB680C333B621AE03B689B68002B97
:101CC00002D104233B6213E03B689B68012B05D1E2
:101CD00008233B627B68FA691A6109E008233B62CA
:101CE0007B68FA695A6103E000233B6200E000BFB1
:101CF000BB69FF2B01D87B6801E07B6804337B6103
:101D0000BB69FF2B02D87B6A9B0002E07B6A083B21
:101D10009B003B617B691A680F213B6901FA03F361
:101D2000DB431A40396A3B6901FA03F31A437B69C2
:101D30001A603B685B6803F08053002B00F0B180B1
:101D40004D4B9B694C4A43F0010393614A4B9B699D
:101D500003F00103BB60BB68484A7B6A9B080233FF
:101D600052F82330FB607B6A03F003039B000F22D1
:101D700002FA03F3DB43FA681340FB607B68404AD6
:101D8000934213D07B683F4A93420DD07B683E4A12
:101D9000934207D07B683D4A934201D1032306E07A
:101DA000042304E0022302E0012300E000237A6A16
:101DB00002F0030292009340FA681343FB602F493C
:101DC0007B6A9B080233FA6841F823203B685B6812
:101DD00003F48033002B06D02D4B1A682C49BB69C5
:101DE00013430B6006E02A4B1A68BB69DB432849A2
:101DF00013400B603B685B6803F40033002B06D094
:101E0000234B5A682249BB6913434B6006E0204BC1
:101E10005A68BB69DB431E4913404B603B685B68F3
:101E200003F48013002B06D0194B9A681849BB693C
:101E300013438B6006E0164B9A68BB69DB43144979
:101E400013408B603B685B6803F40013002B21D0C8
:101E50000F4BDA680E49BB691343CB6021E000BF2A
:101E6000000032100000311000002210000021108C
:101E7000000012100000111000100240000001408C
:101E800000080140000C0140001001400014014016
:101E9000000401400B4BDA68BB69DB43094913407E
:101EA000CB607B6A01337B623B681A687B6A22FAEB
:101EB00003F3002B7FF48EAE00BF00BF2C37BD466E
:101EC00080BC70470004014080B485B000AF7860EA
:101ED0000B467B807B689A687B881340002B02D07E
:101EE0000123FB7301E00023FB73FB7B18461437CF
:101EF000BD4680BC704780B483B000AF78600B46AD
:101F00007B8013467B707B78002B03D07A887B68BC
:101F10001A6103E07B881A047B681A6100BF0C37E2
:101F2000BD4680BC704780B485B000AF78600B467A
:101F30007B807B68DB68FB607A88FB6813401A044F
:101F4000FB68D9437B880B401A437B681A6100BF4A
:101F50001437BD4680BC704780B586B000AF78604E
:101F60007B68002B01D1012372E27B681B6803F0C0
:101F70000103002B00F08780924B5B6803F00C0399
:101F8000042B0CD08F4B5B6803F00C03082B12D191
:101F90008C4B5B6803F48033B3F5803F0BD1894BE6
:101FA0001B6803F40033002B6CD07B685B68002B4C
:101FB00068D101234CE27B685B68B3F5803F06D1B2
:101FC000804B1B687F4A43F4803313602EE07B68AC
:101FD0005B68002B0CD17B4B1B687A4A23F480335F
:101FE0001360784B1B68774A23F4802313601DE04D
:101FF0007B685B68B3F5A02F0CD1724B1B68714AEC
:1020000043F4802313606F4B1B686E4A43F48033A4
:1020100013600BE06B4B1B686A4A23F48033136038
:10202000684B1B68674A23F4802313607B685B68F6
:10203000002B13D0FFF78CF9386108E0FFF788F91F
:1020400002463B69D31A642B01D9032300E25D4B9E
:102050001B6803F40033002BF0D014E0FFF778F98D
:10206000386108E0FFF774F902463B69D31A642B24
:1020700001D90323ECE1534B1B6803F40033002B1D
:10208000F0D100E000BF7B681B6803F00203002B67
:1020900063D04C4B5B6803F00C03002B0BD0494B17
:1020A0005B6803F00C03082B1CD1464B5B6803F400
:1020B0008033002B16D1434B1B6803F00203002B27
:1020C00005D07B681B69012B01D00123C0E13D4B8A
:1020D0001B6823F0F8027B685B69DB003949134316
:1020E0000B603AE07B681B69002B20D0364B012245
:1020F0001A60FFF72DF9386108E0FFF729F9024669
:102100003B69D31A022B01D90323A1E12D4B1B6894
:1021100003F00203002BF0D02A4B1B6823F0F802D7
:102120007B685B69DB00274913430B6015E0264B96
:1021300000221A60FFF70CF9386108E0FFF708F990
:1021400002463B69D31A022B01D9032380E11D4BC0
:102150001B6803F00203002BF0D17B681B6803F0BF
:102160000803002B3AD07B689B69002B19D0174BD2
:1021700001221A60FFF7ECF8386108E0FFF7E8F891
:1021800002463B69D31A022B01D9032360E10D4BB0
:102190005B6A03F00203002BF0D0012000F0A6FAE6
:1021A0001CE00A4B00221A60FFF7D2F838610FE0FA
:1021B000FFF7CEF802463B69D31A022B08D9032356
:1021C00046E100BF0010024000004242800442424B
:1021D000924B5B6A03F00203002BE9D17B681B681A
:1021E00003F00403002B00F0A6800023FB758B4B4B
:1021F000DB6903F08053002B0DD1884BDB69874AE4
:1022000043F08053D361854BDB6903F08053BB609F
:10221000BB680123FB75824B1B6803F48073002BA2
:1022200018D17F4B1B687E4A43F480731360FFF71D
:102230008FF8386108E0FFF78BF802463B69D31A44
:10224000642B01D9032303E1754B1B6803F48073EE
:10225000002BF0D07B68DB68012B06D16F4B1B6A2B
:102260006E4A43F0010313622DE07B68DB68002BAC
:102270000CD16A4B1B6A694A23F001031362674B56
:102280001B6A664A23F0040313621CE07B68DB6868
:10229000052B0CD1614B1B6A604A43F004031362A7
:1022A0005E4B1B6A5D4A43F0010313620BE05B4B1C
:1022B0001B6A5A4A23F001031362584B1B6A574AA0
:1022C00023F0040313627B68DB68002B15D0FFF753
:1022D0003FF838610AE0FFF73BF802463B69D31A42
:1022E00041F28832934201D90323B1E04B4B1B6A80
:1022F00003F00203002BEED014E0FFF729F8386159
:102300000AE0FFF725F802463B69D31A41F288320A
:10231000934201D903239BE0404B1B6A03F0020365
:10232000002BEED1FB7D012B05D13C4BDB693B4AF9
:1023300023F08053D3617B68DB69002B00F087803A
:10234000364B5B6803F00C03082B61D07B68DB69BC
:10235000022B46D1334B00221A60FEF7F9FF386199
:1023600008E0FEF7F5FF02463B69D31A022B01D9BC
:1023700003236DE0294B1B6803F00073002BF0D1A1
:102380007B681B6AB3F5803F08D1244B5B6823F45C
:1023900000327B689B68214913434B601F4B5B688D
:1023A00023F474127B68196A7B685B6A0B431B49D0
:1023B00013434B601B4B01221A60FEF7C9FF3861C3
:1023C00008E0FEF7C5FF02463B69D31A022B01D98C
:1023D00003233DE0114B1B6803F00073002BF0D08A
:1023E00035E0104B00221A60FEF7B2FF386108E0BA
:1023F000FEF7AEFF02463B69D31A022B01D9032335
:1024000026E0064B1B6803F00073002BF0D11EE0A2
:102410007B68DB69012B07D1012319E00010024022
:1024200000700040600042420B4B5B68FB60FB6841
:1024300003F480327B681B6A9A4206D1FB6803F47E
:1024400070127B685B6A9A4201D0012300E000238E
:1024500018461837BD4680BD0010024080B584B0D4
:1024600000AF786039607B68002B01D10123D0E098
:102470006A4B1B6803F007033A689A4210D9674B0E
:102480001B6823F0070265493B6813430B60634BED
:102490001B6803F007033A689A4201D00123B8E0B1
:1024A0007B681B6803F00203002B20D07B681B684D
:1024B00003F00403002B05D0594B5B68584A43F4E2
:1024C000E06353607B681B6803F00803002B05D0B2
:1024D000534B5B68524A43F460535360504B5B6804
:1024E00023F0F0027B689B684D4913434B607B6887
:1024F0001B6803F00103002B40D07B685B68012B55
:1025000007D1474B1B6803F40033002B15D101237F
:102510007FE07B685B68022B07D1414B1B6803F0AF
:102520000073002B09D1012373E03D4B1B6803F0BE
:102530000203002B01D101236BE0394B5B6823F0D0
:1025400003027B685B68364913434B60FEF700FF6C
:10255000F8600AE0FEF7FCFE0246FB68D31A41F27F
:102560008832934201D9032353E02D4B5B6803F07B
:102570000C027B685B689B009A42EBD1274B1B687F
:1025800003F007033A689A4210D2244B1B6823F0E9
:10259000070222493B6813430B60204B1B6803F082
:1025A00007033A689A4201D0012332E07B681B6836
:1025B00003F00403002B08D0194B5B6823F4E0629E
:1025C0007B68DB68164913434B607B681B6803F02C
:1025D0000803002B09D0124B5B6823F460527B6820
:1025E0001B69DB000E4913434B6000F021F80246E3
:1025F0000B4B5B681B0903F00F030A49CB5C22FA03
:1026000003F3094A1360094B1B681846FEF75EFE88
:10261000002318461037BD4680BD00BF0020024091
:1026200000100240F03100080000002004000020EB
:1026300090B48AB000AF294B3C1D0FCB84E80F004B
:1026400040F201233B800023FB610023BB61002398
:102650007B6200237B6100233B62214B5B68FB6153
:10266000FB6903F00C03042B02D0082B03D02BE0F2
:102670001C4B3B622BE0FB699B0C03F00F032833E0
:102680003B4413F8243C7B61FB6903F48033002B4B
:1026900012D0134B5B685B0C03F0010328333B44FF
:1026A00013F8283CBB617B690E4A03FB02F2BB694D
:1026B000B2FBF3F37B6204E07B690B4A02FB03F39A
:1026C0007B627B6A3B6202E0064B3B6200BF3B6A77
:1026D00018462837BD4690BC704700BFE03100085F
:1026E0000010024000127A0000093D0080B485B05D
:1026F00000AF78600A4B1B680A4AA2FB03235B0AFF
:102700007A6802FB03F3FB6000BFFB685A1EFA60A5
:10271000002BF9D100BF00BF1437BD4680BC704705
:1027200000000020D34D621080B586B000AF786005
:1027300000233B610023FB607B681B6803F00103FF
:10274000002B7DD00023FB754F4BDB6903F08053DA
:10275000002B0DD14C4BDB694B4A43F08053D361C6
:10276000494BDB6903F08053BB60BB680123FB75F9
:10277000464B1B6803F48073002B18D1434B1B6836
:10278000424A43F480731360FEF7E2FD386108E0CB
:10279000FEF7DEFD02463B69D31A642B01D9032301
:1027A0006DE03A4B1B6803F48073002BF0D0364B7E
:1027B0001B6A03F44073FB60FB68002B2ED07B6820
:1027C0005B6803F44073FA689A4227D02E4B1B6A69
:1027D00023F44073FB602E4B01221A602C4B002225
:1027E0001A60294AFB681362FB6803F00103002B9F
:1027F00014D0FEF7ADFD38610AE0FEF7A9FD0246F0
:102800003B69D31A41F28832934201D9032336E05F
:102810001D4B1B6A03F00203002BEED01A4B1B6A00
:1028200023F440727B685B68174913430B62FB7D9E
:10283000012B05D1144BDB69134A23F08053D3617C
:102840007B681B6803F00203002B08D00E4B5B680B
:1028500023F440427B689B680B4913434B607B68C1
:102860001B6803F01003002B08D0074B5B6823F4B0
:1028700080027B68DB68044913434B6000231846E1
:102880001837BD4680BD00BF0010024000700040F8
:102890004004424280B582B000AF78607B68002B74
:1028A00001D1012341E07B6893F83D30DBB2002B7E
:1028B00006D17B68002283F83C207868FEF7ECFBA9
:1028C0007B68022283F83D207B681A687B680433AA
:1028D0001946104600F08EF97B68012283F84620E5
:1028E0007B68012283F83E207B68012283F83F2029
:1028F0007B68012283F840207B68012283F8412015
:102900007B68012283F842207B68012283F8432000
:102910007B68012283F844207B68012283F84520EC
:102920007B68012283F83D20002318460837BD4606
:1029300080BD000080B584B000AF786039603B682E
:10294000002B09D17B6893F83E30DBB2012B14BF1A
:1029500001230023DBB222E03B68042B09D17B6812
:1029600093F83F30DBB2012B14BF01230023DBB20D
:1029700015E03B68082B09D17B6893F84030DBB247
:10298000012B14BF01230023DBB208E07B6893F81E
:102990004130DBB2012B14BF01230023DBB2002B3B
:1029A00001D001235EE03B68002B04D17B6802224A
:1029B00083F83E2013E03B68042B04D17B6802229D
:1029C00083F83F200BE03B68082B04D17B68022290
:1029D00083F8402003E07B68022283F841207B6873
:1029E0001B6801223968184600F0EEFA7B681B6804
:1029F0001E4A934207D17B681B685A6C7B681B6830
:102A000042F400425A647B681B68184A93420ED015
:102A10007B681B68B3F1804F09D07B681B68144A40
:102A2000934204D07B681B68124A934211D17B68A1
:102A30001B689B6803F00703FB60FB68062B10D044
:102A40007B681B681A687B681B6842F001021A6089
:102A500007E07B681B681A687B681B6842F001020C
:102A60001A60002318461037BD4680BD002C014077
:102A7000000400400008004080B584B000AFF8605A
:102A8000B9607A60FB6893F83C30012B01D10223D6
:102A9000ACE0FB68012283F83C207B680C2B00F241
:102AA0009F8001A252F823F0DD2A0008E12B0008E4
:102AB000E12B0008E12B00081D2B0008E12B00088A
:102AC000E12B0008E12B00085F2B0008E12B000838
:102AD000E12B0008E12B00089F2B0008FB681B6816
:102AE000B968184600F0E8F8FB681B689A69FB684B
:102AF0001B6842F008029A61FB681B689A69FB68D0
:102B00001B6822F004029A61FB681B689969BB6824
:102B10001A69FB681B680A439A6162E0FB681B68DC
:102B2000B968184600F02EF9FB681B689A69FB68C3
:102B30001B6842F400629A61FB681B689A69FB6833
:102B40001B6822F480629A61FB681B689969BB6804
:102B50001B691A02FB681B680A439A6141E0FB6823
:102B60001B68B968184600F077F9FB681B68DA69DA
:102B7000FB681B6842F00802DA61FB681B68DA69CF
:102B8000FB681B6822F00402DA61FB681B68D969E4
:102B9000BB681A69FB681B680A43DA6121E0FB68BD
:102BA0001B68B968184600F0C1F9FB681B68DA6950
:102BB000FB681B6842F40062DA61FB681B68DA6933
:102BC000FB681B6822F48062DA61FB681B68D969C4
:102BD000BB681B691A02FB681B680A43DA6100E0E4
:102BE00000BFFB68002283F83C2000231846103702
:102BF000BD4680BD80B485B000AF786039607B6829
:102C00001B68FB607B68294A93420BD07B68B3F159
:102C1000804F07D07B68264A934203D07B68254AC1
:102C2000934208D1FB6823F07003FB603B685B684C
:102C3000FA681343FB607B681C4A93420BD07B68A5
:102C4000B3F1804F07D07B68194A934203D07B6869
:102C5000184A934208D1FB6823F44073FB603B6839
:102C6000DB68FA681343FB60FB6823F080023B6873
:102C70005B691343FB607B68FA681A603B689A687B
:102C80007B68DA623B681A687B689A627B68074AED
:102C9000934203D13B681A697B681A637B680122FF
:102CA0005A6100BF1437BD4680BC7047002C0140FC
:102CB000000400400008004080B487B000AF786096
:102CC00039607B681B6A23F001027B681A627B68AB
:102CD0001B6A7B617B685B683B617B689B69FB600F
:102CE000FB6823F07003FB60FB6823F00303FB60C9
:102CF0003B681B68FA681343FB607B6923F002039F
:102D00007B613B689B687A6913437B617B681C4AE3
:102D100093420CD17B6923F008037B613B68DB683D
:102D20007A6913437B617B6923F004037B617B68D1
:102D3000134A934211D13B6923F480733B613B6991
:102D400023F400733B613B685B693A6913433B6161
:102D50003B689B693A6913433B617B683A695A60F7
:102D60007B68FA689A613B685A687B685A637B683B
:102D70007A691A6200BF1C37BD4680BC704700BF2D
:102D8000002C014080B487B000AF786039607B6868
:102D90001B6A23F010027B681A627B681B6A7B61E6
:102DA0007B685B683B617B689B69FB60FB6823F425
:102DB000E043FB60FB6823F44073FB603B681B68E7
:102DC0001B02FA681343FB607B6923F020037B61DD
:102DD0003B689B681B017A6913437B617B681D4AD2
:102DE00093420DD17B6923F080037B613B68DB68F4
:102DF0001B017A6913437B617B6923F040037B618C
:102E00007B68144A934213D13B6923F480633B618E
:102E10003B6923F400633B613B685B699B003A6953
:102E200013433B613B689B699B003A6913433B61D9
:102E30007B683A695A607B68FA689A613B685A68AD
:102E40007B689A637B687A691A6200BF1C37BD464B
:102E500080BC7047002C014080B487B000AF786020
:102E600039607B681B6A23F480727B681A627B6816
:102E70001B6A7B617B685B683B617B68DB69FB602D
:102E8000FB6823F07003FB60FB6823F00303FB6027
:102E90003B681B68FA681343FB607B6923F400738B
:102EA0007B613B689B681B027A6913437B617B688B
:102EB0001D4A93420DD17B6923F400637B613B681B
:102EC000DB681B027A6913437B617B6923F48063AF
:102ED0007B617B68144A934213D13B6923F480538E
:102EE0003B613B6923F400533B613B685B691B0119
:102EF0003A6913433B613B689B691B013A69134381
:102F00003B617B683A695A607B68FA68DA613B68C2
:102F10005A687B68DA637B687A691A6200BF1C377B
:102F2000BD4680BC704700BF002C014080B487B014
:102F300000AF786039607B681B6A23F480527B683D
:102F40001A627B681B6A3B617B685B687B617B689C
:102F5000DB69FB60FB6823F4E043FB60FB6823F460
:102F60004073FB603B681B681B02FA681343FB60FD
:102F70003B6923F400533B613B689B681B033A6940
:102F800013433B617B680F4A934209D17B6923F469
:102F900080437B613B685B699B017A6913437B617A
:102FA0007B687A695A607B68FA68DA613B685A68BC
:102FB0007B681A647B683A691A6200BF1C37BD4699
:102FC00080BC7047002C014080B487B000AFF8602F
:102FD000B9607A60BB6803F01F03012202FA03F3B1
:102FE0007B61FB681A6A7B69DB431A40FB681A62E3
:102FF000FB681A6ABB6803F01F03796801FA03F3E0
:103000001A43FB681A6200BF1C37BD4680BC70477C
:1030100080B485B000AF786039607B6893F83C304D
:10302000012B01D1022346E07B68012283F83C207A
:103030007B68022283F83D207B681B685B68FB602D
:103040007B681B689B68BB60FB6823F07003FB60B8
:103050003B681B68FA681343FB607B681B68FA686F
:103060005A607B681B68164A93420ED07B681B68C7
:10307000B3F1804F09D07B681B68124A934204D099
:103080007B681B68104A93420CD1BB6823F0800315
:10309000BB603B685B68BA681343BB607B681B68B6
:1030A000BA689A607B68012283F83D207B68002221
:1030B00083F83C20002318461437BD4680BC704777
:1030C000002C0140000400400008004080B485B09E
:1030D00000AF786039600023FB607B6893F83C3078
:1030E000012B01D102233DE07B68012283F83C20C3
:1030F000FB6823F0FF023B68DB681343FB60FB685F
:1031000023F440723B689B681343FB60FB6823F425
:1031100080623B685B681343FB60FB6823F40062DA
:103120003B681B681343FB60FB6823F480523B68D9
:103130001B691343FB60FB6823F400523B685B6927
:103140001343FB60FB6823F480423B68DB69134355
:10315000FB607B681B68FA685A647B68002283F80E
:103160003C20002318461437BD4680BC7047000041
:1031700070B500260C4D0D4C641BA410A64209D15D
:1031800000F022F800260A4D0A4C641BA410A64247
:1031900005D170BD55F8043B98470136EEE755F868
:1031A000043B98470136F2E700320008003200087D
:1031B000003200080432000803460244934200D162
:1031C000704703F8011BF9E7F8B500BFF8BC08BC6D
:1031D0009E467047F8B500BFF8BC08BC9E467047D5
:1031E00002030405060708090A0B0C0D0E0F101048
:1031F00000000000000000000102030406070809A7
:04320000350100088C
:0432040011010008AC
:0C3208000024F400100000000100000091
:040000050800125588
:00000001FF
